:020000040800F2
:100000000030002061140008A9140008A914000899
:10001000A9140008A9140008A91400080000000091
:10002000000000000000000000000000A91400080B
:10003000A914000800000000A9140008A914000871
:1000400000000000000000000000000000000000B0
:1000500000000000000000000000000000000000A0
:100060000000000000000000000000000000000090
:100070000000000000000000000000000000000080
:100080000000000000000000000000000000000070
:100090000000000000000000000000000000000060
:1000A0000000000000000000000000000000000050
:1000B0000000000000000000000000000000000040
:1000C0000000000000000000000000000000000030
:1000D0000000000000000000000000000000000020
:1000E0000000000000000000000000000000000010
:1000F0000000000000000000000000000000000000
:1001000000000000000000000000000000000000EF
:1001100000000000000000000000000000000000DF
:1001200000000000000000000000000000000000CF
:1001300000000000000000000000000000000000BF
:1001400000000000000000000000000000000000AF
:10015000000000000000000000000000000000009F
:10016000000000000000000000000000000000008F
:10017000000000000000000000000000000000007F
:08018000000000000000000077
:1001880010B5054C237833B9044B13B10448AFF3C9
:1001980000800123237010BD0C0200200000000025
:1001A800F41400080C4B43B10C480D4910B5AFF3DB
:1001B80000800C48036823B910BD0A48036833B9A6
:1001C8007047094B002BF7D0BDE810401847064B85
:1001D800002BF5D0184700BF00000000F4140008F9
:1001E800100200200C0200200000000000207047D0
:1001F80008B501F030F9002008BD08B501F027F96D
:10020800002008BD10B5044600F0C0F9204601F0F2
:1002180020F900F0C2F922461021722000F0ACF853
:10022800002010BD1FB5214B6A4603F110066D462C
:1002380018685968144603C40833B3422246F7D1F4
:1002480000F004F900F042F900F07CF901F0FEF842
:10025800284601F0FCF8682000F0B8F9652000F0A5
:10026800B5F96C2000F0B2F96C2000F0AFF96F20FE
:1002780000F0ACF90A2000F0A9F900F075F80C4A72
:1002880010216B2000F05AF80A4A1021702000F063
:1002980055F8094A0021782000F050F8074A122141
:1002A8006D2000F04BF800F089F8FCE70C15000809
:1002B800030200080D020008F5010008F901000812
:1002C8000020704770B5013113469C1AA04201DC2A
:1002D800002070BD0D7811F8014CA5F13006F6B27A
:1002E800092E0CD81E70A4F13005EEB2092E15D8CF
:1002F8001C7844EA05141C7002310133E5E7A5F1C6
:100308004106052E02D8373D1D70ECE7A5F16106C0
:10031800052E01D9012070BD573DF5E7A4F141052F
:10032800052D02D8A4F13705E2E7A4F16105052DF2
:10033800F0D81D78573C45EA0414DCE730B5094D80
:100348002B68092B0BDC3F2909D80C2404FB035428
:1003580001332071A160E2602B60002030BD0120D4
:1003680030BD00BF28020020024A00217620FFF796
:10037800E5BF00BFC90200082DE9F04115460F4648
:1003880000F024F90C4E2C46631B9F4204DC0A2023
:10039800BDE8F04100F01AB9A04614F8013B1B096A
:1003A800F05C00F013F998F8003003F00F03F05CEC
:1003B80000F00CF9E8E700BF1C1500082DE9F04132
:1003C800214DB2B000F0F0F82B6800242A1D0C2152
:1003D8009C4203DB07D132B0BDE8F08101FB04F693
:1003E800B65C864224D10C27002607FB04570DF182
:1003F8004808BB68B6EB430F1CD300F0D5F80A28B1
:1004080001D00D28E7D10C2303FB045402AA12A93A
:10041800A068FFF757FF0028DDD1E36802A89847D6
:1004280032AA012102F8C40D7A20FFF7A5FFD2E70E
:100438000134CDE700F0B8F80A28CCD00D28CAD08E
:1004480006F808000136D4E72802002070B596B0F7
:10045800002403264FF4A0230CA801250D93109423
:1004680014940C9600F0CAF80F23214602A80293B0
:10047800049405940694039500F02AFB114B5A69DD
:1004880042F400225A615B69099403F400230E4C7C
:100498000193019B08954FF4C04307A92046079391
:1004A8000A9600F0BBFB2A4620464FF4005100F0A4
:1004B80077FC2A464FF48041204600F071FC16B0C4
:1004C80070BD00BF001002400008004810B588B099
:1004D8004FF4C0630393022304930123059303237A
:1004E800154C069307230793636943F4003363614C
:1004F800636903F40033019303A94FF09040019B13
:1005080000F08CFB0D480E4B4FF4164E80E8084067
:1005180000238360C360036183610C234361A36983
:1005280043F48043A361A36903F480430293029BCD
:1005380000F08AFD08B010BD0010024064030020DE
:1005480000380140104B30B55A6942F400325A6104
:100558005B6987B003F400330093009B01234FF4D9
:10056800805402930025032301A94FF0904004937F
:100578000194039500F052FB2A4621464FF0904023
:1005880000F00EFC07B030BD0010024001224FF40D
:1005980080514FF0904000F003BC00224FF480518E
:1005A8004FF0904000F0FCBB13B5074C41F2883384
:1005B80001220DF10701204600F0C8FD0028F5D101
:1005C8009DF8070002B010BD6403002007B502A91A
:1005D80041F2883301F8010D0122034800F05FFD64
:1005E80003B05DF804FB00BF64030020024B1868E9
:1005F800421C1A60704700BFA402002003682DE95E
:10060800F743D907044611D423689A0700F1868076
:1006180023681E0700F1F48023685D0700F13B8121
:10062800E269002A40F0CF81002021E0B7494B68F9
:1006380003F00C03042B07D04B6803F00C03082BC2
:1006480019D14B68DB0316D54FF4003393FAA3F2A4
:10065800096893FAA3F3B3FA83F303F01F030122A3
:1006680002FA03F30B42CFD06368002BCCD10120F0
:1006780003B0BDE8F0836268B2F5803F24D10B680F
:1006880043F480330B60CB6AA06823F00F03034365
:10069800CB624AB3FFF7AAFF4FF40035074601269D
:1006A80095FAA5F30A6895FAA5F3B3FA83F303F06C
:1006B8001F0306FA03F31342A6D1FFF797FFC01BE7
:1006C8006428EDD90320D3E70B6832B923F48033CB
:1006D8000B600B6823F48023D4E7B2F5A02FF5D183
:1006E80043F480230B60CAE7FFF780FF4FF400351F
:1006F8000746012695FAA5F30A6895FAA5F3B3FA11
:1007080083F303F01F0306FA03F313423FF47CAFAD
:10071800FFF76CFFC01B6428ECD9D3E77B494B6813
:1007280013F00C0F07D04B6803F00C03082B21D1F2
:100738004B68DF031ED4022393FAA3F2086893FAE6
:10074800A3F3B3FA83F303F01F03012202FA03F3BE
:10075800034202D02369934289D10868F82393FAA7
:10076800A3F3B3FA83F26369934020F0F8021343CA
:100778000B604DE72269012502B395FAA5F3B3FA98
:1007880083F303F1845303F584139B0002261D6051
:10079800FFF72CFF074696FAA6F30A6896FAA6F31F
:1007A800B3FA83F303F01F0305FA03F31342D4D11A
:1007B800FFF71CFFC01B0228EDD983E795FAA5F3C4
:1007C800B3FA83F303F1845303F584139B000226E1
:1007D8001A60FFF70BFF074696FAA6F30A6896FA1F
:1007E800A6F3B3FA83F303F01F0305FA03F31342E6
:1007F8003FF40EAFFFF7FAFEC01B0228ECD961E701
:10080800A269424D4248012112B391FAA1F3B3FA09
:1008180083F303449B0002261960FFF7E7FE0746AF
:1008280096FAA6F396FAA6F396FAA6F36A6A96FAE1
:10083800A6F3B3FA83F303F01F0301FA03F3134299
:100848007FF4EAAEFFF7D2FEC01B0228E8D939E7E9
:1008580091FAA1F3B3FA83F303449B0002261A60CA
:10086800FFF7C4FE074696FAA6F396FAA6F396FA99
:10087800A6F36A6A96FAA6F3B3FA83F303F01F03A2
:1008880001FA03F313423FF4C7AEFFF7AFFEC01BF4
:100898000228E8D916E71D49CB69D80033D4CB69BB
:1008A80043F08053CB61CB6903F080530193019BE4
:1008B8000125184E3368DA052ED5E368012B3BD1A4
:1008C8000B6A43F001030B62FFF790FE0226814694
:1008D800B046012796FAA6F396FAA6F3002B6AD03B
:1008E8000A6A98FAA8F3B3FA83F303F01F0307FA26
:1008F80003F3134256D0002D3FF492AECB6923F098
:100908008053CB618CE60025D3E700BF001002407E
:100918002081901000700040336843F48073336086
:10092800FFF764FE07463368DB05C6D4FFF75EFEB3
:10093800C01B6428F7D9C5E633BB0B6A23F0010353
:100948000B620B6A23F004030B62FFF74FFE0226CB
:100958008146B046012796FAA6F396FAA6F373B332
:100968000A6A98FAA8F3B3FA83F303F01F0307FAA5
:1009780003F31342BFD0FFF739FE41F28833A0EBEF
:1009880009009842E7D99DE6052B0B6A03D143F08D
:1009980004030B6294E723F001030B620B6A23F054
:1009A800040390E7FFF722FE41F28833A0EB090029
:1009B80098428FD986E696FAA6F34A6A91E796FA9C
:1009C800A6F34A6ACDE741494B6803F00C03082BAC
:1009D8003FF44DAE022A4FF0807351D193FAA3F33E
:1009E800B3FA83F303F1845303F584139B000022C5
:1009F8001A60FFF7FBFD4FF000760746012596FACF
:100A0800A6F30A6896FAA6F3B3FA83F303F01F0372
:100A180005FA03F313422DD14A68636A206A22F467
:100A28007412034313434B604FF0807393FAA3F39C
:100A3800B3FA83F303F1845303F584139B004FF057
:100A480000741D60FFF7D2FD0125064694FAA4F351
:100A58000A6894FAA4F3B3FA83F303F01F0305FAC0
:100A680003F313427FF4E0ADFFF7C0FD801B0228BB
:100A7800ECD927E6FFF7BAFDC01B0228BFD921E64B
:100A880093FAA3F3B3FA83F303F1845303F58413BE
:100A98009B0000221A60FFF7A9FD4FF0007406467C
:100AA800012594FAA4F30A6894FAA4F3B3FA83F339
:100AB80003F01F0305FA03F313423FF4B5ADFFF744
:100AC80095FD801B0228ECD9FCE500BF0010024010
:100AD800504AF8B5136803F007038B4205461BD349
:100AE8002A68900724D4D2072AD44A4A136803F004
:100AF800070399427AD32868430700F1828010F0EF
:100B0800080008D0444A2969536823F4605343EA2B
:100B1800C10353600020F8BD136823F007030B439B
:100B28001360136803F007039942D9D00120F8BD78
:100B38003948AC68436823F0F00323434360D2E7A5
:100B48006A68354C012A27D14FF4003393FAA3F091
:100B5800206893FAA3F3B3FA83F303F01F0302FAAE
:100B680003F30342E2D0636823F003031A4362608D
:100B7800FFF73CFD6B68012B064641F288371ED112
:100B8800636803F00C03042BAFD0FFF72FFD801B25
:100B9800B842F5D90320F8BD022A0CBF4FF0007304
:100BA800022393FAA3F0266893FAA3F3B3FA83F324
:100BB80003F01F03012000FA03F33342D2E7022BAC
:100BC8000FD1636803F00C03082B8ED0FFF70EFDDE
:100BD800801BB842F5D9DDE7FFF708FD801BB84256
:100BE800D8D8636813F00C0FF6D17EE7136823F0AA
:100BF80007030B431360136803F00703994295D169
:100C080079E7054AE968536823F4E0630B435360C6
:100C180075E700BF00200240001002402DE9F74FA1
:100C2800D1F80080DFF874915A4A002338FA03F4A7
:100C380002D103B0BDE8F08F012404FA03FA18EAE0
:100C48000A0500F09C804C6824F0100BBBF1020FE1
:100C580014D14FEAD30E00EB8E0E03F0070CDEF82A
:100C680020604FEA8C0C0F2707FA0CF726EA0707D3
:100C78000E6906FA0CF63E43CEF820604FEA430CA4
:100C88000327066807FA0CF7FF4304F0030E3E40FB
:100C98000EFA0CFE0BF1FF3B4EEA0606BBF1010F04
:100CA800066011D8866806EA070BCE6806FA0CFEBD
:100CB8004EEA0B068660466826EA0A0AC4F300165E
:100CC8009E4046EA0A064660C66837408E6806FABD
:100CD8000CF63743E600C76051D5D9F8186046F0DE
:100CE8000106C9F81860D9F8186023F0030707F15E
:100CF800804706F0010607F58037019603F0030CDC
:100D0800019EBE684FEA8C0C4FF00F0E0EFA0CFED7
:100D1800B0F1904F26EA0E0E33D01F4EB04232D0BB
:100D280006F58066B04230D006F58066B0422ED017
:100D380006F58066B04214BF0526042606FA0CF6AE
:100D480046EA0E06BE601668EF4314F4803F0CBFF7
:100D58003E402E431660566814F4003F0CBF3E40D8
:100D68002E435660966814F4801F0CBF3E402E43F5
:100D78009660D668A40254BF3E402E43D660013325
:100D880054E70026DAE70126D8E70226D6E7032645
:100D9800D4E700BF000401400004004800100240EE
:100DA8000AB18161704781627047000002688168FA
:100DB800C36930B5056914682943456924F41644A4
:100DC800294324F00C041943214311605168C46875
:100DD800056A21F44051214351609468816924F4E3
:100DE800306429432143916062498A4212D101F556
:100DF8005841614C096B01F00301B3F5004F615C88
:100E08006ED0082919D8DFE801F0B08B9618B01811
:100E18001818A00059498A422CD101F5E631096B0E
:100E280001F44031B1F5803F00F09C8007D80029DB
:100E380000F09880B3F5004F6FD0012030BDB1F5B8
:100E4800003F00F08780B1F5403FF3D1B3F5004F84
:100E580071D141684B0803F1F47303F59043B3FB78
:100E6800F1F300209BB223F00F01C3F342030B43BD
:100E7800D36030BD42498A420ED101F5E431096B95
:100E880001F44021B1F5802F6CD0D0D9B1F5002FF5
:100E980060D0B1F5402FD8E73A498A420ED101F522
:100EA800E231096B01F44011B1F5801F5AD0BED967
:100EB800B1F5001F4ED0B1F5401FC6E732498A424E
:100EC800B8D101F5E031096B01F44001B1F5800FAB
:100ED80048D0ACD9B1F5000F3CD0B1F5400FB4E71C
:100EE80008291AD801A353F821F000BF190F0008E8
:100EF800190F00085B0E0008230F0008190F0008DF
:100F0800230F0008230F0008230F0008630F0008B1
:100F180041684B0803F56103A1E701200023A2E71C
:100F28004268530803F5E103B3FBF2F3114A9BB29D
:100F3800D360002030BD41684B0803F5740303F506
:100F48001053B3FBF1F39BB2F2E741684B0803F58A
:100F58000043F6E7B3F5004FF7D141684B0803F5B6
:100F680080337CE7B3F5004FD2D041684B0803F5D6
:100F7800E103E6E7003801402C1500080044004072
:100F880000480040004C004000500040F8B5069D65
:100F9800044616461F462068C26931EA02030CBFA0
:100FA80001220022B24201D00020F8BD6B1CF3D010
:100FB80095B923681A6822F4D0721A609A6822F0E8
:100FC80001029A60202384F8693084F86A3000238B
:100FD80084F868300320F8BDFFF708FBC01B854282
:100FE800D9D2E6E737B504460021C166FFF7FEFA15
:100FF80023681B681A07054617D423681B685B0714
:101008000AD56FF07E43009300222B464FF48001EF
:101018002046FFF7BBFFA0B92023002084F86930E1
:1010280084F8680084F86A300CE06FF07E4300931F
:101038000A4603464FF400112046FFF7A7FF002891
:10104800DBD0032003B030BD10B5044628B390F8B8
:10105800693003F0FF020BB980F868202268242366
:1010680084F86930136823F0010313602046FFF702
:101078009DFE012811D023685A6822F490425A60D4
:101088009A6822F02A029A601A6842F00102204601
:101098001A60BDE81040FFF7A5BF012010BDF7B5E5
:1010A8001F4690F86930202B0D46044611464BD157
:1010B800002D47D0002A45D090F86830012B43D046
:1010C800012380F868300023C366212380F8693043
:1010D800FFF78CFA0646A4F85010A4F85210B4F89A
:1010E800522092B262B90097334640212046FFF75A
:1010F8004DFF98B9202384F8693084F868000EE021
:10110800B4F852300097013B9BB2A4F85230002249
:10111800334680212046FFF739FF10B1032003B082
:10112800F0BDA3682268B3F5805F07D123692BB9A6
:1011380035F8023BC3F308031385D0E72B781385F2
:101148000135CCE70120EAE70220E8E72DE9F34181
:10115800984690F86A30202B0D46044611465DD11A
:10116800002D59D0002A57D090F86830012B55D05F
:10117800012380F8683003684FF0FF321A620023B9
:10118800C366222380F86A30FFF730FAA368A4F810
:101198005810B3F5805F0746A4F85A1015D1236993
:1011A8008BB940F2FF13A4F85C30B4F85C60B4F873
:1011B8005A0080B280B9202384F86A3084F8680025
:1011C80002B0BDE8F081FF23EDE7002BEDD12369E4
:1011D800002BF8D07F23E6E7B4F85A30CDF800802A
:1011E800013B9BB2A4F85A3000223B4620212046FE
:1011F800FFF7CCFEA0B9A368B3F5805F236806D1DA
:10120800226922B99B8C334025F8023BCFE79B8C9F
:1012180033402B700135CAE70120D1E70220CFE720
:101228000320CDE7F7B52B4A52F8043B03F1100130
:10123800187810705878507098789070D878D07066
:1012480004338B4202F10402F2D10421224B2348D9
:101258000DEB010400229D5C15550132042AFAD1D8
:101268008A0718D19DF804509DF80760455D9DF8E0
:1012780005208DF8075000EB91059DF80670825CFB
:1012880095F80051C75D865D8DF805706A408DF848
:1012980006608DF8042013F80C2C9DF804506A4061
:1012A8001A719DF8055013F80B2C6A405A719DF875
:1012B800065013F80A2C6A409A719DF8075013F8E3
:1012C800092C01316A402C29DA7103F10403C1D1D8
:1012D80003B0F0BDAC020020BC02002000000020DA
:1012E8000C49F0B50001D1F8B470002304311C1882
:1012F800FD180C44002214F802E02E78013286EA28
:101308000E06042A05F8016BF5D10433102BEED133
:10131800F0BD00BFAC020020094B0A48D3F8B43036
:1013280010B5191D002213F82240045D03F822406D
:101338000132042AF7D101338B42F3D110BD00BF2B
:10134800AC020020000000200D4BD3F8B4305979CE
:101358005A785970597A5971597B5972997A5A73CE
:101368009A789970997B9A729A799971D97B9A73BC
:10137800DA78D970D97AD973D979D972DA7170478C
:10138800AC020020C3095A00134403EBC30383EAE9
:101398004000C0B2704700002DE9F84F0020FFF769
:1013A8009FFF0124FFF7B8FFFFF7CEFF1F4BD3F8CD
:1013B800B41001F1100B91F800A04E788D7891F8D7
:1013C80003908AEA060085EA090880EA0807FFF719
:1013D800D9FF8AEA00007840087086EA0500FFF71E
:1013E800D1FF7040784048704046FFF7CBFF684017
:1013F800784088708AEA0900FFF7C4FF89EA00008C
:101408004740CF7004315945D5D120460134E4B264
:10141800FFF766FF0A2CC5D1FFF77EFFFFF794FFA1
:101428002046BDE8F84FFFF75BBF00BFAC020020C5
:10143800014B1860FFF7F6BEAC020020024BC3F860
:10144800B400FFF7A9BF00BFAC0200207047FFF748
:10145800EFBFFFF7F3BF7047002103E00B4B5B586A
:10146800435004310A480B4B42189A42F6D30A4AB1
:1014780002E0002313600432084B9A42F9D3AFF319
:10148800008000F00FF8FEF7CDFEFEE738150008E3
:10149800000000200C0200200C020020D4030020D1
:1014A800FEE7000070B50D4E0D4CA41BA4100025DE
:1014B800A54209D10B4E0C4C00F018F8A41BA4103F
:1014C8000025A54205D170BD56F82530984701354D
:1014D800EEE756F8253098470135F2E73015000851
:1014E800301500083015000834150008F8B500BF9D
:1014F800F8BC08BC9E467047F8B500BFF8BC08BCED
:041508009E46704744
:10150C002B7E151628AED2A6ABF7158809CF4F3C0B
:10151C00303132333435363738394142434445461D
:04152C0001040802AC
:04153000AD01000801
:041534008901000821
:10153800637C777BF26B6FC53001672BFED7AB7688
:10154800CA82C97DFA5947F0ADD4A2AF9CA472C033
:10155800B7FD9326363FF7CC34A5E5F171D83115A0
:1015680004C723C31896059A071280E2EB27B275C1
:1015780009832C1A1B6E5AA0523BD6B329E32F8439
:1015880053D100ED20FCB15B6ACBBE394A4C58CF31
:10159800D0EFAAFB434D338545F9027F503C9FA805
:1015A80051A3408F929D38F5BCB6DA2110FFF3D2D3
:1015B800CD0C13EC5F974417C4A77E3D645D197387
:1015C80060814FDC222A908846EEB814DE5E0BDB81
:1015D800E0323A0A4906245CC2D3AC629195E479B8
:1015E800E7C8376D8DD54EA96C56F4EA657AAE0812
:1015F800BA78252E1CA6B4C6E8DD741F4BBD8B8AAD
:10160800703EB5664803F60E613557B986C11D9E12
:10161800E1F8981169D98E949B1E87E9CE5528DF89
:101628008CA1890DBFE6426841992D0FB054BB16B5
:101638008D01020408102040801B3652096AD530FB
:1016480036A538BF40A39E81F3D7FB7CE339829B44
:101658002FFF87348E4344C4DEE9CB547B9432A6F3
:10166800C2233DEE4C950B42FAC34E082EA16628C4
:10167800D924B2765BA2496D8BD12572F8F66486BF
:10168800689816D4A45CCC5D65B6926C704850FD21
:10169800EDB9DA5E154657A78D9D8490D8AB008CBE
:1016A800BCD30AF7E45805B8B34506D02C1E8FCA38
:1016B8003F0F02C1AFBD0301138A6B3A9111414F2D
:1016C80067DCEA97F2CFCEF0B4E67396AC7422E703
:1016D800AD3585E2F937E81C75DF6E47F11A711DE3
:1016E80029C5896FB7620EAA18BE1BFC563E4BC6A9
:1016F800D279209ADBC0FE78CD5AF41FDDA8338852
:1017080007C731B11210592780EC5F60517FA919C2
:10171800B54A0D2DE57A9F93C99CEFA0E03B4DAEED
:101728002AF5B0C8EBBB3C83539961172B047EBAEA
:0C17380077D626E169146355210C7D0072
:04000005080014617A
:00000001FF
