:020000040800F2
:1000000000000220251000086D1000086D10000887
:100010006D1000086D1000086D1000080000000051
:100020000000000000000000000000006D1000084B
:100030006D100008000000006D1000086D10000831
:1000400000000000000000000000000000000000B0
:1000500000000000000000000000000000000000A0
:100060000000000000000000000000000000000090
:100070000000000000000000000000000000000080
:100080000000000000000000000000000000000070
:100090000000000000000000000000000000000060
:1000A0000000000000000000000000000000000050
:1000B0000000000000000000000000000000000040
:1000C0000000000000000000000000000000000030
:1000D0000000000000000000000000000000000020
:1000E0000000000000000000000000000000000010
:1000F0000000000000000000000000000000000000
:1001000000000000000000000000000000000000EF
:1001100000000000000000000000000000000000DF
:1001200000000000000000000000000000000000CF
:1001300000000000000000000000000000000000BF
:1001400000000000000000000000000000000000AF
:10015000000000000000000000000000000000009F
:10016000000000000000000000000000000000008F
:10017000000000000000000000000000000000007F
:08018000000000000000000077
:1001880010B5054C237833B9044B13B10448AFF3C9
:1001980000800123237010BD000000200000000033
:1001A800B81000080C4B43B10C480D4910B5AFF31B
:1001B80000800C48036823B910BD0A48036833B9A6
:1001C8007047094B002BF7D0BDE810401847064B85
:1001D800002BF5D0184700BF00000000B810000839
:1001E80004000020000000200000000000207047EC
:1001F80008B500F012FF002008BD08B500F009FF9F
:10020800002008BD10B5044600F08AF9204600F029
:1002180002FF00F08DF922461021722000F0ACF8A0
:10022800002010BD1FB5214B6A4603F110066D462C
:1002380018685968144603C40833B3422246F7D1F4
:1002480000F004F900F01CF900F056F900F0DFFEA8
:10025800284600F0DEFE682000F084F9652000F0F2
:1002680081F96C2000F07EF96C2000F07BF96F209A
:1002780000F078F90A2000F075F900F075F80C4ADA
:1002880010216B2000F05AF80A4A1021702000F063
:1002980055F8094A0021782000F050F8074A122141
:1002A8006D2000F04BF800F089F8FCE7D01000084A
:1002B800030200080D020008F5010008F901000812
:1002C8000020704770B5013113469C1AA04201DC2A
:1002D800002070BD0D7811F8014CA5F13006F6B27A
:1002E800092E0CD81E70A4F13005EEB2092E15D8CF
:1002F8001C7844EA05141C7002310133E5E7A5F1C6
:100308004106052E02D8373D1D70ECE7A5F16106C0
:10031800052E01D9012070BD573DF5E7A4F141052F
:10032800052D02D8A4F13705E2E7A4F16105052DF2
:10033800F0D81D78573C45EA0414DCE730B5094D80
:100348002B68092B0BDC3F2909D80C2404FB035428
:1003580001332071A160E2602B60002030BD0120D4
:1003680030BD00BF1C000020024A00217620FFF7A4
:10037800E5BF00BFC90200082DE9F04115460F4648
:1003880000F0F0F80C4E2C46631B9F4204DC0A2058
:10039800BDE8F04100F0E6B8A04614F8013B1B099F
:1003A800F05C00F0DFF898F8003003F00F03F05C21
:1003B80000F0D8F8E8E700BFE01000082DE9F041A8
:1003C800214DB2B000F0BCF82B6800242A1D0C2186
:1003D8009C4203DB07D132B0BDE8F08101FB04F693
:1003E800B65C864224D10C27002607FB04570DF182
:1003F8004808BB68B6EB430F1CD300F0A1F80A28E5
:1004080001D00D28E7D10C2303FB045402AA12A93A
:10041800A068FFF757FF0028DDD1E36802A89847D6
:1004280032AA012102F8C40D7A20FFF7A5FFD2E70E
:100438000134CDE700F084F80A28CCD00D28CAD0C2
:1004480006F808000136D4E71C00002010B592B069
:1004580003230024069306A84FF4A02307930994C6
:100468000D9400F05BF90F2301930521012301A8E6
:10047800029303940494059400F0E4FA12B010BDBA
:1004880030B589B04FF4C063039302230025164C9E
:100498000493069301220723019505920793236B82
:1004A800124813432363236B1340019303A9019B51
:1004B80000F060FB0E480F4A02954FF4164380E89F
:1004C8000C000C238560C560056185614361636C20
:1004D80043F010036364636C03F010030293029B00
:1004E80000F02EFC09B030BD003802400000024088
:1004F800EC000020001001407FB54FF480530193B9
:10050800012302930023039301A9022303480493C0
:1005180000F030FB07B05DF804FB00BF00000240AC
:1005280001224FF48051014800F004BC0000024051
:1005380000224FF48051014800F0FCBB000002404B
:1005480013B5074C41F2883301220DF1070120460B
:1005580000F0B7FC0028F5D19DF8070002B010BDE7
:10056800EC00002007B502A941F2883301F8010D1B
:100578000122034800F062FC03B05DF804FB00BFF1
:10058800EC00002010B5044C0023E268C15CD15493
:100598000133102BF9D110BD9800002037B50D4C50
:1005A8000D4A0E48E0608023002584E82C00FFF700
:1005B800E9FF0B4B01955A6B42F010025A635B6BD3
:1005C80003F0100301932046019B00F0C5FC03B023
:1005D80030BD00BF9800002000000650DC0000205D
:1005E8000038024037B5084C0546204600F0B4FCF8
:1005F8004FF47A73009310222B462946204600F0C8
:10060800C9FC03B030BD00BF98000020B2F5807F60
:1006180029D0B2F5007F0CD022BB0A68036812BA51
:100628001A634A6812BA5A638A6812BA9A63CA681D
:1006380016E00A68036812BA1A624A6812BA5A625D
:100648008A6812BA9A62CA6812BADA620A6912BA6F
:100658001A634A6912BA5A638A6912BA9A63CA69EA
:1006680012BADA6370470A68036812BA9A624A686B
:1006780012BADA628A6812BA1A63CA6812BA5A6374
:100688000A6912BA9A634A69EAE70000024B1868D5
:10069800421C1A60704700BFD80000202DE9F843BB
:1006A800089E054690461F4610311C46E31B984598
:1006B80002D80020BDE8F8832B6851F8102C9A6006
:1006C80051F80C2C9A6051F8082C9A6051F8042CB7
:1006D8009A60FFF7DBFF81462B685A6852070AD5F4
:1006E800DA682260DA686260DA68A260DB68E36070
:1006F80010311034DAE7701CEFD03EB90320002324
:1007080085F83D0085F83C30BDE8F883FFF7BEFF6B
:10071800A0EB09008642DFD2F0E700000368F7B5D6
:10072800DC0701463BD40B68980700F186800B680C
:100738001B0700F1D1800B685F072AD500230193BE
:100748008E4B8F4C1A6C42F080521A641B6C03F06B
:1007580080530193019B236843F480732360FFF760
:1007680095FF05462368DA0540F1D8808B68834CED
:10077800012B40F0DA80236F43F001032367FFF772
:1007880085FF7E4C054641F28836236F9B0740F172
:10079800ED808A69002A40F0F980002015E0774B47
:1007A8009A6802F00C02042A07D09A6802F00C0238
:1007B800082A0CD15B685A0209D5704B1B689B0349
:1007C800B1D54B68002BAED1012003B0F0BD4B680A
:1007D8006A4CB3F5803F11D1236843F4803323601A
:1007E800FFF754FF654C054623689F039BD4FFF72A
:1007F8004DFF401B6428F7D90320E6E7B3F5A02F87
:1008080004D1236843F480232360E5E7226822F4B7
:1008180080322260226822F480222260002BDFD1FD
:10082800FFF734FF054623689E037FF57CAFFFF78B
:100838002DFF401B6428F6D9DEE7504B9A6812F06A
:100848000C0F07D09A6802F00C02082A16D15B68D0
:100858005D0213D4494B1A68940702D5CA68012A65
:10086800B2D11C68F82292FAA2F2B2FA82F00A69AE
:10087800824024F0F80002431A6058E7CA68414BE6
:10088800DAB101221A60FFF701FF3C4C05462368E4
:1008980098070CD52068F82393FAA3F3B3FA83F2E8
:1008A8000B69934020F0F802134323603FE7FFF7FA
:1008B800EDFE401B0228EAD99EE71A60FFF7E6FE24
:1008C8002E4C054623689A077FF531AFFFF7DEFE09
:1008D800401B0228F6D98FE74A692B4B7AB10122CF
:1008E8001A60FFF7D3FE254C0546636F9E073FF558
:1008F80022AFFFF7CBFE401B0228F6D97CE71A602F
:10090800FFF7C4FE1D4C0546636F98077FF513AFCC
:10091800FFF7BCFE401B0228F6D96DE7FFF7B6FECD
:10092800401B02287FF61EAF66E7052B04D1236F14
:1009380043F0040323671EE7226F22F001022267B7
:10094800226F22F004022267002B7FF418AFFFF712
:100958009DFE41F288360546236F9F077FF519AF44
:10096800FFF794FE401BB042F6D945E7FFF78EFE2D
:10097800401BB0427FF609AF3EE700BF0038024097
:100988000070004000004742800E47422B4CA3688D
:1009980003F00C03082B3FF417AF294D0023022A5C
:1009A8002B603ED1FFF772FE06462368980132D4C9
:1009B80047F6C07797FAA7F74FF44032B7FA87F7A8
:1009C80092FAA2F24FF07060B2FA82F690FAA0F0B2
:1009D8000A6ACB6913434A6A02FA07F78A6A520815
:1009E800013AB2403B431343CA6AB0FA80F002FAB4
:1009F80000F00343636001232B60FFF747FE0F49B4
:100A080004460B689A013FF5C8AEFFF73FFE001B8E
:100A18000228F6D9F0E6FFF739FE801B0228C4D970
:100A2800EAE6FFF733FE014623689B017FF5B5AE82
:100A3800FFF72CFE401A0228F6D9DDE600380240FE
:100A480060004742F8B5494B1A6802F00F028A4223
:100A580005461AD32A68900720D4D20726D4434BD8
:100A68001A6802F00F02914270D32868430775D4C0
:100A780010F0080008D03E4A2969936823F46043BF
:100A880043EAC10393600020F8BDCAB21A701B681C
:100A980003F00F039942DDD00120F8BD3448AC685B
:100AA800836823F0F00323438360D6E76A68304BFA
:100AB800012A1DD11B6813F4003FEDD02C4CA3680C
:100AC80023F003031343A360FFF7E0FD6B68012BDA
:100AD800064641F2883715D1A36803F00C03042BAE
:100AE800BDD0FFF7D3FD801BB842F5D90320F8BD70
:100AF800901E01281B6802D813F0007FDDE713F071
:100B0800020FDAE7022B0AD1A36803F00C03082BC3
:100B1800A5D0FFF7BBFD801BB842F5D9E6E7032B4C
:100B28000FD1A36803F00C030C2B98D0FFF7AEFD90
:100B3800801BB842F5D9D9E7FFF7A8FD801BB8425A
:100B4800D4D8A36813F00C0FF6D188E7CAB21A708C
:100B58001B6803F00F0399429ED186E7044AE968AF
:100B6800936823F4E0530B43936081E7003C024011
:100B7800003802402DE9F04F85B00B68DFF8AC81F2
:100B8800684ADFF8AC91019300234FF0010E019CF5
:100B98000EFA03FE0EEA0406B64540F0AE804C6835
:100BA80024F01007022F16D14FEAD30A00EB8A0A65
:100BB80003F0070BDAF820504FEA8B0B4FF00F0CBD
:100BC8000CFA0BFC25EA0C0C0D6905FA0BF545EA45
:100BD8000C05CAF820504FEA430A0325D0F800B0A4
:100BE80005FA0AF5ED4304F0030C0BEA050B0CFAC1
:100BF8000AFC013F4CEA0B0C012FC0F800C011D8C9
:100C0800876807EA050BCF6807FA0AFC4CEA0B0766
:100C18008760476827EA0E0EC4F300179F4047EA2B
:100C28000E074760C7683D408F6807FA0AF73D43DB
:100C3800C560E50061D54FF0000BCDF80CB0D8F8D1
:100C48004470394D47F48047C8F84470D8F8447068
:100C580007F480470397039F23F0030707F18047B2
:100C680007F59C3703F0030CD7F808A04FEA8C0C63
:100C78004FF00F0E0EFA0CFEA8422AEA0E0E43D0D1
:100C880005F58065A84241D005F58065A8423FD0AA
:100C980005F58065A8423DD005F58065A8423BD0A2
:100CA80048453BD005F50065A84239D005F5806573
:100CB800A84214BF0825072505FA0CF545EA0E05D4
:100CC800BD601568F74314F4803F0CBF3D403543C1
:100CD8001560556814F4003F0CBF3D40354355601E
:100CE800956814F4801F0CBF3D4035439560D56866
:100CF800A40254BF3D403543D5600133102B7FF427
:100D080044AF05B0BDE8F08F5D46D5E70125D3E7D0
:100D18000225D1E70325CFE70425CDE70525CBE755
:100D28000625C9E7003C01400000024000380240A7
:100D3800001402400AB1816170470904FBE7000012
:100D480030B5002874D090F8393003F0FF020BB9A1
:100D580080F838200168C2680569C469242380F8CE
:100D68003930CB6823F40053CB600B6923F440532C
:100D780013430B618368CA682B43456922F4164202
:100D88002B4322F00C0223431343CB604B69826947
:100D980023F440731343B4F5004F4B614468254B6B
:100DA80036D199424FEA4404234AB2FBF4F24FF099
:100DB8006404B2FBF4F503D003F58063994223D1B0
:100DC80004FB1522D3003233B3FBF4F303F007021C
:100DD8005B0002EB051203F4F87313448B600B6994
:100DE80023F490430B614B6923F02A034B61CB68D2
:100DF80043F40053CB6020220023C36380F83920DA
:100E080080F83A20184630BD04FB1523DB00DAE7EA
:100E1800A2006424084BB3FBF2F2B2FBF4F504FB26
:100E280015231B013233B3FBF4F303EB0513D5E7AA
:100E3800012030BD001001400080FC0A90F83930D4
:100E4800202B3CD1002938D0002A36D090F83830F1
:100E5800012B34D0012380F838300023C3632123C9
:100E680080F839308284C284C28C036892B252B945
:100E78001A685206FCD5202380F83930002380F800
:100E8800383018467047C28C013A92B2C2848268E0
:100E9800B2F5805F0AD11A681206FCD50A88C2F337
:100EA80008025A60036933B90231DDE71A6812068D
:100EB800FCD50A785A600131D6E701207047022034
:100EC800704790F83A30202B10B542D100293ED017
:100ED800002A3CD090F83830012B3AD0012380F812
:100EE80038300023C363222380F83A308285C285D4
:100EF800C38D9BB233B9202280F83A2080F838306D
:100F0800184610BDC38D013B9BB2C3858368B3F5FA
:100F1800805F03680ED11A689406FCD502695B6885
:100F280022B9C3F3080321F8023BE1E7DBB221F859
:100F3800013BDDE71A689206FCD504695B684A1C28
:100F480014B90B701146D3E703F07F03F9E70120CA
:100F580010BD022010BD0000C0B190F83D3003F074
:100F6800FF020BB980F83C20022380F83D3042682C
:100F780083681343064A136000230122838580F89F
:100F88003120C38580F83D201846704701207047FE
:100F9800000006502DE9F341984690F83C30012BAB
:100FA80004460E4617464FF002052CD0012380F860
:100FB8003C3090F8313080F83D50012B12D18268D6
:100FC800C168FFF723FB0268136843F0200313602E
:100FD800116841F480411160116841F400411160C9
:100FE80080F83150089B00933A46434631462046E4
:100FF800FFF754FB48B9012384F83D3084F83C00DE
:1010080002B0BDE8F0812846FAE70320F8E7FFF7C9
:10101800C5BAFFF7B7BAFFF7E5BA7047002103E092
:101028000B4B5B58435004310A480B4B42189A4209
:10103800F6D30A4A02E0002313600432084B9A42AE
:10104800F9D3AFF3008000F00FF8FFF7EBF8FEE7F5
:10105800F810000800000020000000200000002018
:101068002C010020FEE7000070B50D4E0D4CA41BAE
:10107800A4100025A54209D10B4E0C4C00F018F81D
:10108800A41BA4100025A54205D170BD56F8253033
:1010980098470135EEE756F8253098470135F2E7CD
:1010A800F0100008F0100008F0100008F410000814
:1010B800F8B500BFF8BC08BC9E467047F8B500BF3D
:0810C800F8BC08BC9E4670470D
:1010D0002B7E151628AED2A6ABF7158809CF4F3C4C
:1010E000303132333435363738394142434445465E
:0410F000AD01000846
:0410F4008901000866
:0400000508001025BA
:00000001FF
