:020000040040BA
:10000000E0260020C5034000C1034000C1034000BA
:10001000C1034000C1034000C103400000000000D4
:10002000000000000000000000000000C1034000CC
:10003000C103400000000000C1034000C1034000B4
:10004000C1034000C1034000C1034000C1034000A0
:10005000C1034000C1034000C10340000000000094
:10006000C1034000C103400000000000C103400084
:10007000C103400000000000C1034000C103400074
:100080000000000000000000C1034000C103400068
:10009000C1034000C1034000C1034000C103400050
:1000A000C1034000C1034000000000000000000048
:1000B00000000000C1034000C1034000C103400034
:1000C000C1034000C1034000C10340000348044B8A
:1000D000834202D0034B03B118477047F8604000D9
:1000E000F8604000000000000548064B1B1AD90FBD
:1000F00001EBA301491002D0034B03B1184770472D
:10010000F8604000F86040000000000010B5064CA8
:10011000237843B9FFF7DAFF044B13B10448AFF378
:1001200000800123237010BD0004002000000000A7
:10013000F860400008B5044B1BB104490448AFF314
:100140000080BDE80840CFE7000000000404002064
:10015000F860400038B5044D441E14F8010F00B992
:1001600038BDA847F9E700BF5505400038B504463B
:10017000074B0D469847631E691E0F3413F8012F75
:1001800011F8010FA34282EA00021A70F6D138BDBD
:10019000DD0C40002DE9F04F1D4B1E4A85B003F1E8
:1001A0001005A2F1080918685968144603C40833F9
:1001B000AB422246F7D1184DDFF860A0DFF860B0FF
:1001C0000026A846B8F80030B6EB131F02D305B0DE
:1001D000BDE8F08F05F1040C9CE80F006C4684E844
:1001E0000F0060460B49D04794E80F0009F1080C56
:1001F0008CE80F00DBF800306A689A4205F11005C0
:1002000003D0084BAD209847FEE70136DAE700BF80
:1002100010000020241400201C0400206D01400068
:10022000200000205505400070B5054E04464518D5
:10023000AC4200D170BDB04704F8010BF8E700BF35
:1002400071054000104B002210B5C3E900229A60EE
:10025000A3F1080243E9020111460C480C4B0D4C76
:100260009847012109480C4B984708480B4B984781
:1002700006480B4B98470548A0470128FBD0BDE82E
:1002800010400248074B1847081600200040044061
:10029000E1094000F5094000E5094000EF09400090
:1002A000E9094000FD09400038B5114C114D02210B
:1002B0002046A84721884B1EB3F5805F03D30E4B21
:1002C000AA209847FEE7201DA8470C480421A8470C
:1002D00020460B4B30F8041B04F5805498476368A4
:1002E000834203D0044BCC209847FEE738BD00BFC3
:1002F0001C04002029024000550540002014002065
:1003000045024000024B1B68D86B00F480707047B8
:1003100024000020034A11684FF480730B601268B8
:10032000536670472400002070B5164B9847164B53
:100330009847164B9847164B20209847154B164860
:100340009847164B9847164B984708B1154B984756
:10035000154D164E45F00105B047154B9847154B06
:100360001B7E6BB1144CF020A047A020A047F020CA
:10037000A047124B04F1000003F100012847EBE70E
:10038000FEE700BF59044000F1044000950540001D
:1003900089094000CD0C40000000002015034000FA
:1003A000050340007960400000EC0020A9024000F5
:1003B000950140001C1400205505400071054000C7
:1003C000FEE7000019491A48814210B520D9194B9F
:1003D000DA1C121A22F00302C41E9C4288BF0022BB
:1003E000154B984700BF154B1548DA1C121AC11E51
:1003F00022F00302994288BF0022124B0021984745
:10040000114B124A9A60124B9847124B9847FEE7DD
:10041000E8D2084B0A1F181A1044C1F10401C8425F
:10042000E0D050F8042943F8042DF8E7E40F400029
:100430000000002038020020F90D4000DC160020EA
:1004400000040020550D400000ED00E000004000D9
:10045000050D400029034000184B4FF4004270B5D1
:1004600000205A65164C174D174EA0470120A04793
:100470000520A047154B002098471548A847154B65
:1004800000209847144B3E2101209847B047002890
:10049000FCD0124B00209847114B98471148A847B1
:1004A000114A136823F0806313600B20A047BDE856
:1004B00070400E4B4FF060510F20184700140E4053
:1004C000890940004508400079094000C5094000FD
:1004D000000E2707A90840002D094000E908400048
:1004E0007907400010757000000A0E40D5064000E4
:1004F0001FB5104B104C4FF41642CDE901324FF4AA
:100500000063039308200D4B984701A90C4B20462C
:10051000984720460B4B98470B4B204698470B4C6F
:100520000B490920A0474FF000610A20A04704B002
:1005300010BD00BF90AD710000060E40890940005B
:10054000B5054000EF054000E9054000D506400034
:100550000100000870B5044E044D044621463046A3
:10056000A8470028FAD170BD00060E40F5054000EE
:1005700037B5064D064C0DF107012846A047002867
:10058000F9D19DF8070003B030BD00BF00060E4052
:100590000306400010B5054B0B209847BDE81040FE
:1005A000034B4FF040510720184700BF8909400016
:1005B000D5064000AC2310B50360D1E90032B3FB8F
:1005C000F2F31B095C1E4FF6FE7294420AD80362D6
:1005D0008B68436040F20223C0F82031502303604F
:1005E000002010BD0120FCE740230360704710236A
:1005F0000360704743699B0746BFC161002001202B
:1006000070474369DB0743BF83690B7000200120FB
:100610007047B1F1C05F426426D007D8B1F1006FD6
:1006200011D0B1F1805F1CD0C9B97047B1F1005F42
:1006300023D014D3B1F1405F12D021F08051B1F139
:10064000205F0CD17047016F036F0B4023EA020358
:100650000367416F436F0B4023EA02034367426025
:100660007047036F1343F3E7016F036F0B4023EAF7
:1006700002030367436F1343F0E7036F1343F8E785
:10068000D30741644CBF4166016612F00A0F07D0E0
:100690009307016208D4130748BFC0F8841000E034
:1006A0004162416101607047C0F88010F9E710B500
:1006B000029C41643CB141663BB101653AB10163C2
:1006C0000161016010BD0166F6E74165F6E741632F
:1006D000F6E7000037B5044640090D4600F5001066
:1006E00001F0F04100F20770B1F1005F4FEA4020E5
:1006F0001FD00BD8B1F1805F1BD0B1F1C05F18D013
:10070000B1F1006F15D0002003B030BD05F0E0431B
:10071000B3F1405F17D0B1F1205FF4D104F01F04B2
:100720000121124B2A46A140984700E002660120B1
:10073000EAE704F01F040122A2400D4B9847EC07A2
:10074000F4D54266F3E705F0605202F148414A42AF
:1007500005F0010304F01F044A4101210093A14068
:10076000C5F38003034CA047E1E700BF81064000CA
:1007700013064000AF06400010B52C4A2C4B116BFD
:1007800001F0030101292AD0023901291DD8116A7B
:10079000CC0148D427491960116A01F07001102971
:1007A0003ED020293FD0106B196800F003000228CA
:1007B0000BBF946AD46A906AD06AC4F30A4404FBFB
:1007C0000111C0B2B1FBF0F107E01B49496A08060C
:1007D0004CBF4FF400414FF4FA4119600DE0116A2B
:1007E000C90101D51549F8E712491960116A01F0EC
:1007F0007001102912D02029F4D0106B196800F074
:10080000700070281BBF126BC2F30212032221FA80
:1008100002F208BFB1FBF2F21A6010BD0849DCE732
:1008200007491960BFE70549FBE700BF00040E4018
:100830002800002000093D0000140E40001BB700F6
:1008400000127A000E4B98420E4B03D84FF0806294
:100850001A6070470C4A904201D20C4AF8E70C4AE1
:10086000904201D20B4AF3E70B4A904201D80B4A5F
:10087000EEE70B4A90428CBF0A4A4FF00422E7E7AA
:10088000FF2C3101000A0E40005A620200010004F0
:100890000087930300020004FFB3C40400030004B4
:1008A000FFE0F505000500040E4B1A6B22F0030271
:1008B0001A6340F60102996E09070BD51A6B22F0F4
:1008C00070021043186340F60102996E090705D5BE
:1008D00000207047013AEED101207047013AF4D16F
:1008E000FAE700BF00040E400F4B1A6B22F0030220
:1008F00042F001021A6340F60102996E09070BD516
:100900001A6B22F070021043186340F60102996ED0
:10091000090705D500207047013AEED10120704744
:10092000013AF4D1FAE700BF00040E400F4A30B19B
:10093000136A0F4919400F4B0B4313627047106A3B
:100940000B0220F45C119BB221F003010B4343F432
:100950005C1343F001031362936EDB07FCD5136A4B
:1009600043F09B7343F48033E7E700BF00040E407D
:10097000FCFFC8FE02003701024B986E00F4803085
:10098000704700BF00040E40222816D81F280C4ACA
:100990004FF0010307D89169834033EA010118BF82
:1009A000136100207047D2F808112038834033EAE1
:1009B0000101F6D0C2F80031F3E70120704700BF13
:1009C00000040E40034B18B1034AC3F8E4207047FB
:1009D000024AFAE700040E4001434D5000434D50D7
:1009E0000160704781637047012383607047012372
:1009F00043637047006900F001007047C06B7047A7
:100A000073B5274B274A1B6803F110011878107043
:100A10005878507098789070D878D07004338B42A2
:100A200002F10402F2D1204B2048214C04211A6823
:100A300001928D0714D1C2F30746C2F30725865DE4
:100A40008DF80560160ED2B2455D825C8DF80720E8
:100A50008A08865DA25C8DF806606A408DF80420E5
:100A600013F80C2C9DF804506A401A719DF805503B
:100A700013F80B2C6A405A719DF8065013F80A2C93
:100A80006A409A719DF8075013F8092C01316A40A9
:100A90002C29DA7103F10403C9D102B070BD00BF83
:100AA00014160020281600203416002037010020DC
:100AB0002C000020F0B50A4B0A4D1B68000103F121
:100AC000100641191C1D1A7811F8017B7A4003F8B1
:100AD000012BA342F7D19E4200F10400F1D1F0BDF9
:100AE000D816002028160020C30903EB430303EBAC
:100AF000C30383EA4000C0B27047000010B5084B42
:100B000008481B68191D002213F82240045D03F8F1
:100B100022400132042AF7D101338B42F3D110BDB8
:100B2000D8160020370000200D4B1B68597A5A7BDD
:100B300059735979597259785971997A5A709A78C2
:100B40009970997B9A729A799971D9799A73DA78AE
:100B5000D970D97AD971D97BD972DA73704700BF4D
:100B6000D81600202DE9F04F0A208DB04D4CA0473B
:100B7000092301930A944C4B4C4D98474C4B984792
:100B80000A9B019898474B4B1C6804F1100309938A
:100B900023780293029863780393A8470490A847A8
:100BA0000590A8478246039894F8028094F803B011
:100BB000A8470246A8470690A84707464046A847C8
:100BC0000B90A8470790A84706465846A8470890A4
:100BD000A8478146A847DDE9043183EA010C8AEA87
:100BE0000C0C079B029982EA0C0C87EA0C0C83EA36
:100BF0000C0C86EA0C0C039B80EA0C0C83EA0C0CB0
:100C0000069B8AEA02025A400B9B7A405A40724085
:100C100089EA020242404A4088EA02028BEA020262
:100C20006270059A82EA0A027A405340079A53405A
:100C3000089A734053404340039A4B40534088EA1C
:100C40000C0C8BEA0C0C8BEA030B84F800C084F8C4
:100C500002B0049B069A83EA0A0353405F40089B54
:100C60007E40734089EA030980EA0900039B4840FB
:100C7000434088EA0303E370099B0434A34287D10D
:100C8000019B03F1FF3818F0FF0301937FF473AF6A
:100C9000054B9847064B98470198024B0DB0BDE8AD
:100CA000F04F1847B50A4000290B4000E90A400000
:100CB000FD0A4000D81600204B1E01380F3113F8F2
:100CC000012F00F8012F8B42F9D17047014B1860BA
:100CD000014B184714160020010A400010B5054BBF
:100CE00001461860044B05489847BDE81040044B86
:100CF000184700BFD8160020B90C40001816002075
:100D0000650B400070B50F4B0F4DAB42A3EB0506D2
:100D100007D0B610002455F8043B01349847A6428A
:100D2000F9D800F04BF9094D094B5E1BAB424FEA75
:100D3000A60606D0002455F8043B01349847A64285
:100D4000F9D870BDC80F4000C80F4000C80F400060
:100D5000CC0F4000830730B547D0541E002A3ED048
:100D6000CAB2034601E0013C39D303F8012B9D07C9
:100D7000F9D1032C2CD9CDB205EB05250F2C05EBB1
:100D8000054535D9A4F1100222F00F0C03F1100E25
:100D9000E6444FEA121C1A46C2E90055C2E9025560
:100DA00010327245F8D10CF1010214F00C0F03EB74
:100DB000021204F00F0C13D0ACF1040323F0030370
:100DC0000433134442F8045B9342FBD10CF0030458
:100DD0002CB1C9B21C4403F8011BA342FBD130BDA6
:100DE00064461346002CF4D1F9E703461446C0E7E5
:100DF0001A46A446E0E700BF844641EA000313F028
:100E000003036DD1403A41D351F8043B40F8043B11
:100E100051F8043B40F8043B51F8043B40F8043BD4
:100E200051F8043B40F8043B51F8043B40F8043BC4
:100E300051F8043B40F8043B51F8043B40F8043BB4
:100E400051F8043B40F8043B51F8043B40F8043BA4
:100E500051F8043B40F8043B51F8043B40F8043B94
:100E600051F8043B40F8043B51F8043B40F8043B84
:100E700051F8043B40F8043B51F8043B40F8043B74
:100E800051F8043B40F8043B403ABDD2303211D314
:100E900051F8043B40F8043B51F8043B40F8043B54
:100EA00051F8043B40F8043B51F8043B40F8043B44
:100EB000103AEDD20C3205D351F8043B40F8043B14
:100EC000043AF9D2043208D0D2071CBF11F8013B12
:100ED00000F8013B01D30B8803806046704700BFD8
:100EE000082A13D38B078DD010F003038AD0C3F1E7
:100EF0000403D21ADB071CBF11F8013B00F8013BC9
:100F000080D331F8023B20F8023B7BE7043AD9D387
:100F1000013A11F8013B00F8013BF9D20B7803705C
:100F20004B7843708B78837060467047436F6E6771
:100F3000726174756C6174696F6E732C20796F7552
:100F400027766520636F6D706C657465642053430C
:100F5000413130312100436865636B206261636B0E
:100F600020666F722066757475726520636F757286
:100F700073657321212121004C6576656C20313A1F
:100F80002046696E642074686573652073747269A5
:100F90006E6773004C6576656C20323A2047657445
:100FA00020796F75722053414D345320746F207037
:100FB00072696E742074686973000000F8B500BF30
:100FC000F8BC08BC9E46704735014000F8B500BF2C
:0C0FD000F8BC08BC9E4670470D014000B4
:080FDC001CFEFF7F0100000074
:100FE400B1C20DDD654607074312FFADFA00A07AD2
:100FF400B1C20DDD654607074312FFADFA00A07AC2
:10100400EFBEADDE000E0E4000093D008D0102046E
:1010140008102040801B3652096AD53036A538BFE7
:1010240040A39E81F3D7FB7CE339829B2FFF873457
:101034008E4344C4DEE9CB547B9432A6C2233DEEF6
:101044004C950B42FAC34E082EA16628D924B276D9
:101054005BA2496D8BD12572F8F66486689816D424
:10106400A45CCC5D65B6926C704850FDEDB9DA5E57
:10107400154657A78D9D8490D8AB008CBCD30AF736
:10108400E45805B8B34506D02C1E8FCA3F0F02C1E1
:10109400AFBD0301138A6B3A9111414F67DCEA97A4
:1010A400F2CFCEF0B4E67396AC7422E7AD3585E2A8
:1010B400F937E81C75DF6E47F11A711D29C5896F70
:1010C400B7620EAA18BE1BFC563E4BC6D279209AB4
:1010D400DBC0FE78CD5AF41FDDA8338807C731B1D1
:1010E4001210592780EC5F60517FA919B54A0D2D64
:1010F400E57A9F93C99CEFA0E03B4DAE2AF5B0C8BA
:10110400EBBB3C83539961172B047EBA77D626E157
:1011140069146355210C7D637C777BF26B6FC5305A
:1011240001672BFED7AB76CA82C97DFA5947F0AD69
:10113400D4A2AF9CA472C0B7FD9326363FF7CC343B
:10114400A5E5F171D8311504C723C31896059A078C
:101154001280E2EB27B27509832C1A1B6E5AA05237
:101164003BD6B329E32F8453D100ED20FCB15B6A55
:10117400CBBE394A4C58CFD0EFAAFB434D338545FB
:10118400F9027F503C9FA851A3408F929D38F5BC33
:10119400B6DA2110FFF3D2CD0C13EC5F974417C4D9
:1011A400A77E3D645D197360814FDC222A908846D6
:1011B400EEB814DE5E0BDBE0323A0A4906245CC268
:1011C400D3AC629195E479E7C8376D8DD54EA96C9F
:1011D40056F4EA657AAE08BA78252E1CA6B4C6E899
:1011E400DD741F4BBD8B8A703EB5664803F60E61F5
:1011F4003557B986C11D9EE1F8981169D98E949B23
:101204001E87E9CE5528DF8CA1890DBFE6426841CF
:08121400992D0FB054BB160028
:10600000024BD86B00F08000704700BF000E0E40BE
:10601000024B80221A605A615A667047000E0E4089
:1060200082B00023009300934FF4A0230093009BC1
:106030000193009A019B93FBF2F301930198009B5B
:10604000184402B0704710B5FFF7EAFF054C064848
:10605000A0470648A0470648A04723460548BDE894
:1060600010401847550140002C0F4000560F4000CB
:10607000780F4000940F4000F7B5194B194C1A4E99
:106080001A4F0B209847FFF7C3FF194B4FF480318D
:106090004FF400421960196159635A634FF480420A
:1060A0005A6300221546D86B196300065ABF0132A5
:1060B000D2B2002200950098A04208D959630195F8
:1060C0000198A04207D9142AEDD93760EBE7009870
:1060D00001300090EFE7019801300190F0E700BF38
:1060E000890940008FD0030000140E40010000A574
:0860F000000E0E40000000004C
:04000005004003C5EF
:00000001FF
