:020000040040BA
:10000000A8100020D1044000CD044000CD044000E1
:10001000CD044000CD044000CD04400000000000AD
:10002000000000000000000000000000CD044000BF
:10003000CD04400000000000CD044000CD0440008D
:10004000CD044000CD044000CD044000CD0440006C
:10005000CD044000CD044000CD044000000000006D
:10006000CD044000CD04400000000000CD0440005D
:10007000CD04400000000000CD044000CD0440004D
:100080000000000000000000CD044000CD0440004E
:10009000CD044000CD044000CD044000CD0440001C
:1000A000CD044000CD04400000000000000000002E
:1000B00000000000CD044000CD044000CD0440000D
:1000C000CD044000CD044000CD0440000348044B63
:1000D000834202D0034B03B118477047EC0D400038
:1000E000EC0D4000000000000548064B1B1AD90F1C
:1000F00001EBA301491002D0034B03B1184770472D
:10010000EC0D4000EC0D40000000000010B5064C66
:10011000237843B9FFF7DAFF044B13B10448AFF378
:1001200000800123237010BD880000200000000023
:10013000EC0D400008B5044B1BB104490448AFF373
:100140000080BDE80840CFE7000000008C000020E0
:10015000EC0D400070B5044D0446000AA847E0B21B
:100160002B46BDE8704018476106400070B5044D4D
:100170000446000CA847A0B22B46BDE870401847C3
:100180005501400001440023884202D15842C0B2C8
:10019000704710F8012B13449BB2F5E7F0B500232C
:1001A00087B0CDE90333214E0593054603AF0C24F8
:1001B000B047013C14F0FF0407F8010BF8D1B04739
:1001C0000C2106461A4B0DEB01009847B04206D0B1
:1001D000184B45F008009847002007B0F0BD0123F8
:1001E000154A02938DF807409DF807300B2B0CD869
:1001F0009DF807309DF8070018336B4413F80C1C6A
:10020000135C994207D000230293029A094B4AB922
:1002100045F00100DFE79DF807300133DBB28DF8D0
:100220000730E1E7284698470120D6E77D064000E1
:100230008501400061064000606040002DE9F74301
:10024000224B234ED3E900231A4305D1162033460F
:1002500003B0BDE8F04318471020B0471D4B1020F5
:10026000984700282FD01C4FB847B8478046ADF8B4
:100270000600B847194B044602210DF106009847C5
:10028000844201D01820E2E71020B0470025DFF8B3
:1002900050902C46ABB298450CD8B8476442E4B2B3
:1002A0008442EFD11020B0470E4B1B6803B0BDE86D
:1002B000F0431847B84709F8050019F805301C4401
:1002C000A4B20135E6E703B0BDE8F0835860400012
:1002D000610640009D0140007D0640008501400010
:1002E000EC0D40007800002007B500200B4A0346C3
:1002F00012F8011B01330844B3F5807F80B2F7D1B7
:10030000074BADF806009847064B02210DF1060099
:100310009847054B03B05DF804EB184700604000B8
:1003200055014000850140006106400010B50A48B3
:100330000A4CA0470A48A0470A48A0470A48A047D5
:100340000A4BD3E900231A43BDE81040084B0CBF09
:1003500001200020184700BF006040006D014000F0
:1003600000A0010000EC00200014000058604000D4
:100370006106400010B5084B084C9847542808D136
:100380000748084B012198475F202346BDE81040ED
:1003900018475120F9E700BF7D0640006106400084
:1003A00000604000650B400013B5124B6020984779
:1003B000E8B1114B6F2098471049D1E90023B3F100
:1003C000FF3F08BFB2F1FF3F11D100220023C1E976
:1003D00000230B4B01936A460DF10203094C01A85F
:1003E000A047BDF800200198074B0121984702B0B3
:1003F00010BD00BF9D0140006106400058604000F4
:10040000000A0E40450B4000ED0A4000024B1B68FD
:10041000D86B00F4807070477C000020034A11689C
:100420004FF480730B601268536670477C000020A5
:10043000F8B5194B9847194B9847194B9847194BE2
:100440009847194B984708B1184B9847184E194DC3
:10045000194FB0473028044618D00AD810280FD0BA
:10046000202810D02046A84744F00100C0B2A84779
:10047000EFE740280DD06028F4D1A8470F4B00E0EB
:100480000F4B9847E5E7A8470E4BFAE7A847B84750
:10049000DFE7A8470C4BF4E765054000FD05400089
:1004A000A10640001D0440000D0440000160400012
:1004B0007D064000610640002D034000A903400076
:1004C0003D024000E902400075034000FEE70000E5
:1004D00019491A48814210B520D9194BDA1C121A51
:1004E00022F00302C41E9C4288BF0022154B98478D
:1004F00000BF154B1548DA1C121AC11E22F0030268
:10050000994288BF0022124B00219847114B124A92
:100510009A60124B9847124B9847FEE7E8D2084B77
:100520000A1F181A1044C1F10401C842E0D050F863
:10053000042943F8042DF8E7EC21400000000020D6
:1005400088000020910C4000A400002088000020BA
:10055000ED0B400000ED00E0000040009D0B40006E
:1005600031044000184B4FF4004270B500205A652A
:10057000164C174D174EA0470120A0470520A04755
:10058000154B002098471548A847154B0020984761
:10059000144B3E2101209847B0470028FCD0124B55
:1005A00000209847114B98471148A847114A1368F3
:1005B00023F0806313600B20A047BDE870400E4B12
:1005C0004FF060510F20184700140E40950A40006C
:1005D00051094000850A4000D10A4000000E27075B
:1005E000B5094000390A4000F5094000850840007F
:1005F00010757000000A0E40E10740001FB5104B57
:10060000104C4FF41642CDE901324FF400630393CE
:1006100008200D4B984701A90C4B204698472046CF
:100620000B4B98470B4B204698470B4C0B49092026
:10063000A0474FF000610A20A04704B010BD00BFE2
:1006400090AD710000060E40950A4000C1064000C2
:10065000FB064000F5064000E107400001000008ED
:1006600070B5044E044D044621463046A847002884
:10067000FAD170BD00060E400107400037B5064DA7
:10068000064C0DF107012846A0470028F9D19DF836
:10069000070003B030BD00BF00060E400F0740004A
:1006A00010B5054B0B209847BDE81040034B4FF0A9
:1006B00040510720184700BF950A4000E10740005D
:1006C000AC2310B50360D1E90032B3FBF2F31B0990
:1006D0005C1E4FF6FE7294420AD803628B68436038
:1006E00040F20223C0F8203150230360002010BDE7
:1006F0000120FCE74023036070471023036070472C
:1007000043699B0746BFC1610020012070474369D0
:10071000DB0743BF83690B70002001207047B1F1F4
:10072000C05F426426D007D8B1F1006F11D0B1F19B
:10073000805F1CD0C9B97047B1F1005F23D014D3DA
:10074000B1F1405F12D021F08051B1F1205F0CD1A6
:100750007047016F036F0B4023EA02030367416F89
:10076000436F0B4023EA0203436742607047036F05
:100770001343F3E7016F036F0B4023EA02030367A0
:10078000436F1343F0E7036F1343F8E7D307416464
:100790004CBF4166016612F00A0F07D09307016251
:1007A00008D4130748BFC0F8841000E041624161DB
:1007B00001607047C0F88010F9E710B5029C4164F1
:1007C0003CB141663BB101653AB101630161016031
:1007D00010BD0166F6E74165F6E74163F6E7000004
:1007E00037B5044640090D4600F5001001F0F04110
:1007F00000F20770B1F1005F4FEA40201FD00BD824
:10080000B1F1805F1BD0B1F1C05F18D0B1F1006FC2
:1008100015D0002003B030BD05F0E043B3F1405FD8
:1008200017D0B1F1205FF4D104F01F040121124B65
:100830002A46A140984700E002660120EAE704F05A
:100840001F040122A2400D4B9847EC07F4D54266E5
:10085000F3E705F0605202F148414A4205F0010316
:1008600004F01F044A4101210093A140C5F3800315
:10087000034CA047E1E700BF8D0740001F07400081
:10088000BB07400010B52C4A2C4B116B01F0030143
:1008900001292AD0023901291DD8116ACC0148D476
:1008A00027491960116A01F0700110293ED02029F2
:1008B0003FD0106B196800F0030002280BBF946A48
:1008C000D46A906AD06AC4F30A4404FB0111C0B22E
:1008D000B1FBF0F107E01B49496A08064CBF4FF431
:1008E00000414FF4FA4119600DE0116AC90101D5C8
:1008F0001549F8E712491960116A01F070011029D1
:1009000012D02029F4D0106B196800F07000702804
:100910001BBF126BC2F30212032221FA02F208BFBC
:10092000B1FBF2F21A6010BD0849DCE70749196013
:10093000BFE70549FBE700BF00040E408000002030
:1009400000093D0000140E40001BB70000127A00A1
:100950000E4B98420E4B03D84FF080621A607047DE
:100960000C4A904201D20C4AF8E70C4A904201D25C
:100970000B4AF3E70B4A904201D80B4AEEE70B4AC9
:1009800090428CBF0A4A4FF00422E7E7FF2C310166
:10099000000A0E40005A620200010004008793031F
:1009A00000020004FFB3C40400030004FFE0F505E7
:1009B000000500040E4B1A6B22F003021A6340F686
:1009C0000102996E09070BD51A6B22F070021043D1
:1009D000186340F60102996E090705D5002070479B
:1009E000013AEED101207047013AF4D1FAE700BF95
:1009F00000040E400F4B1A6B22F0030242F001027A
:100A00001A6340F60102996E09070BD51A6B22F0A2
:100A100070021043186340F60102996E090705D56C
:100A200000207047013AEED101207047013AF4D11D
:100A3000FAE700BF00040E400F4A30B1136A0F49B5
:100A400019400F4B0B4313627047106A0B0220F4DE
:100A50005C119BB221F003010B4343F45C1343F0A0
:100A600001031362936EDB07FCD5136A43F09B739B
:100A700043F48033E7E700BF00040E40FCFFC8FEEC
:100A800002003701024B986E00F48030704700BFBF
:100A900000040E40222816D81F280C4A4FF00103EC
:100AA00007D89169834033EA010118BF1361002020
:100AB0007047D2F808112038834033EA0101F6D09C
:100AC000C2F80031F3E70120704700BF00040E4078
:100AD000034B18B1034AC3F8E4207047024AFAE70F
:100AE00000040E4001434D5000434D50A1F10E0350
:100AF000012B37B51DD9EFF31083B3FA83F35B09EC
:100B0000019372B6BFF35F8F0B4C002323700B4B26
:100B1000019D03EA0222C9B21143094B41F0B441DD
:100B2000984725B101232370BFF35F8F62B603B0EE
:100B300030BD4FF0FF30FAE78400002000FFFF00D7
:100B40005F00002010B508B1054C04601AB1A1F592
:100B50008000400A108013B1C1F30801198010BD54
:100B6000000A0E40032908B511D8C0F3080373B971
:100B7000A0F58000C0F34F2040EA0102054B064873
:100B800007219847003818BF0120000108BD112037
:100B9000FCE700BFED0A4000000A0E4070B50F4BA5
:100BA0000F4DAB42A3EB050607D0B610002455F855
:100BB000043B01349847A642F9D800F003F9094DE7
:100BC000094B5E1BAB424FEAA60606D0002455F83F
:100BD000043B01349847A642F9D870BDD00D4000BF
:100BE000D00D4000D00D4000D40D4000830730B53B
:100BF00047D0541E002A3ED0CAB2034601E0013C51
:100C000039D303F8012B9D07F9D1032C2CD9CDB290
:100C100005EB05250F2C05EB054535D9A4F1100290
:100C200022F00F0C03F1100EE6444FEA121C1A4694
:100C3000C2E90055C2E9025510327245F8D10CF1F3
:100C4000010214F00C0F03EB021204F00F0C13D08E
:100C5000ACF1040323F003030433134442F8045BB0
:100C60009342FBD10CF003042CB1C9B21C4403F82D
:100C7000011BA342FBD130BD64461346002CF4D1C6
:100C8000F9E703461446C0E71A46A446E0E700BF6A
:100C9000844641EA000313F003036DD1403A41D387
:100CA00051F8043B40F8043B51F8043B40F8043B46
:100CB00051F8043B40F8043B51F8043B40F8043B36
:100CC00051F8043B40F8043B51F8043B40F8043B26
:100CD00051F8043B40F8043B51F8043B40F8043B16
:100CE00051F8043B40F8043B51F8043B40F8043B06
:100CF00051F8043B40F8043B51F8043B40F8043BF6
:100D000051F8043B40F8043B51F8043B40F8043BE5
:100D100051F8043B40F8043B51F8043B40F8043BD5
:100D2000403ABDD2303211D351F8043B40F8043B75
:100D300051F8043B40F8043B51F8043B40F8043BB5
:100D400051F8043B40F8043B103AEDD20C3205D385
:100D500051F8043B40F8043B043AF9D2043208D07D
:100D6000D2071CBF11F8013B00F8013B01D30B88EF
:100D700003806046704700BF082A13D38B078DD0CD
:100D800010F003038AD0C3F10403D21ADB071CBF9F
:100D900011F8013B00F8013B80D331F8023B20F809
:100DA000023B7BE7043AD9D3013A11F8013B00F842
:100DB000013BF9D20B7803704B7843708B788370CA
:100DC00060467047F8B500BFF8BC08BC9E46704747
:100DD00035014000F8B500BFF8BC08BC9E4670471E
:040DE0000D014000C1
:080DE400ACFEFF7F01000000DE
:100DEC0000000000000000000000000000000000F7
:100DFC0000000000000000000000000000000000E7
:100E0C0000000000000000000000000000000000D6
:100E1C0000000000000000000000000000000000C6
:1021EC0073B504463BB30068C9B240F4803041F08B
:1021FC00B44120606160A1680191019810F0010068
:10220C00F9D10699C3F5800503EB81018B420ED100
:10221C00D2B242F0B4426260A3680193019BDB0727
:10222C00FAD5236823F48033236002B070BDEE58D6
:10223C0043F8046BEAE70220F7E70160704782B0CD
:10224C00416083680193019BDB07FAD5019800F08C
:10225C000E0002B070470000EC0D4000000E0E4066
:08226C0000093D000100000023
:1060000013B5114B114C0B209847114B4FF48032B4
:106010004FF400411A601A615A6359634FF480418A
:10602000596300201A6300900099A14208D95A636D
:1060300001900199A142F5D8019901310191F8E748
:10604000009901310091EFE7950A40008FD00300DD
:10605000000E0E40000000000000000000000000E4
:0C6060005343413130314E414531323361
:04000005004004D1E2
:00000001FF
